{
  "_format": "hh-sol-artifact-1",
  "contractName": "LoanNFT",
  "sourceName": "contracts/core/LoanNFT.sol",
  "abi": [
    {
      "inputs": [],
      "stateMutability": "nonpayable",
      "type": "constructor"
    },
    {
      "inputs": [
        {
          "internalType": "address",
          "name": "sender",
          "type": "address"
        },
        {
          "internalType": "uint256",
          "name": "tokenId",
          "type": "uint256"
        },
        {
          "internalType": "address",
          "name": "owner",
          "type": "address"
        }
      ],
      "name": "ERC721IncorrectOwner",
      "type": "error"
    },
    {
      "inputs": [
        {
          "internalType": "address",
          "name": "operator",
          "type": "address"
        },
        {
          "internalType": "uint256",
          "name": "tokenId",
          "type": "uint256"
        }
      ],
      "name": "ERC721InsufficientApproval",
      "type": "error"
    },
    {
      "inputs": [
        {
          "internalType": "address",
          "name": "approver",
          "type": "address"
        }
      ],
      "name": "ERC721InvalidApprover",
      "type": "error"
    },
    {
      "inputs": [
        {
          "internalType": "address",
          "name": "operator",
          "type": "address"
        }
      ],
      "name": "ERC721InvalidOperator",
      "type": "error"
    },
    {
      "inputs": [
        {
          "internalType": "address",
          "name": "owner",
          "type": "address"
        }
      ],
      "name": "ERC721InvalidOwner",
      "type": "error"
    },
    {
      "inputs": [
        {
          "internalType": "address",
          "name": "receiver",
          "type": "address"
        }
      ],
      "name": "ERC721InvalidReceiver",
      "type": "error"
    },
    {
      "inputs": [
        {
          "internalType": "address",
          "name": "sender",
          "type": "address"
        }
      ],
      "name": "ERC721InvalidSender",
      "type": "error"
    },
    {
      "inputs": [
        {
          "internalType": "uint256",
          "name": "tokenId",
          "type": "uint256"
        }
      ],
      "name": "ERC721NonexistentToken",
      "type": "error"
    },
    {
      "inputs": [
        {
          "internalType": "address",
          "name": "owner",
          "type": "address"
        }
      ],
      "name": "OwnableInvalidOwner",
      "type": "error"
    },
    {
      "inputs": [
        {
          "internalType": "address",
          "name": "account",
          "type": "address"
        }
      ],
      "name": "OwnableUnauthorizedAccount",
      "type": "error"
    },
    {
      "anonymous": false,
      "inputs": [
        {
          "indexed": true,
          "internalType": "address",
          "name": "owner",
          "type": "address"
        },
        {
          "indexed": true,
          "internalType": "address",
          "name": "approved",
          "type": "address"
        },
        {
          "indexed": true,
          "internalType": "uint256",
          "name": "tokenId",
          "type": "uint256"
        }
      ],
      "name": "Approval",
      "type": "event"
    },
    {
      "anonymous": false,
      "inputs": [
        {
          "indexed": true,
          "internalType": "address",
          "name": "owner",
          "type": "address"
        },
        {
          "indexed": true,
          "internalType": "address",
          "name": "operator",
          "type": "address"
        },
        {
          "indexed": false,
          "internalType": "bool",
          "name": "approved",
          "type": "bool"
        }
      ],
      "name": "ApprovalForAll",
      "type": "event"
    },
    {
      "anonymous": false,
      "inputs": [
        {
          "indexed": true,
          "internalType": "address",
          "name": "previousOwner",
          "type": "address"
        },
        {
          "indexed": true,
          "internalType": "address",
          "name": "newOwner",
          "type": "address"
        }
      ],
      "name": "OwnershipTransferred",
      "type": "event"
    },
    {
      "anonymous": false,
      "inputs": [
        {
          "indexed": true,
          "internalType": "address",
          "name": "from",
          "type": "address"
        },
        {
          "indexed": true,
          "internalType": "address",
          "name": "to",
          "type": "address"
        },
        {
          "indexed": true,
          "internalType": "uint256",
          "name": "tokenId",
          "type": "uint256"
        }
      ],
      "name": "Transfer",
      "type": "event"
    },
    {
      "inputs": [
        {
          "internalType": "address",
          "name": "to",
          "type": "address"
        },
        {
          "internalType": "uint256",
          "name": "tokenId",
          "type": "uint256"
        }
      ],
      "name": "approve",
      "outputs": [],
      "stateMutability": "nonpayable",
      "type": "function"
    },
    {
      "inputs": [
        {
          "internalType": "address",
          "name": "owner",
          "type": "address"
        }
      ],
      "name": "balanceOf",
      "outputs": [
        {
          "internalType": "uint256",
          "name": "",
          "type": "uint256"
        }
      ],
      "stateMutability": "view",
      "type": "function"
    },
    {
      "inputs": [
        {
          "internalType": "uint256",
          "name": "tokenId",
          "type": "uint256"
        }
      ],
      "name": "burn",
      "outputs": [],
      "stateMutability": "nonpayable",
      "type": "function"
    },
    {
      "inputs": [
        {
          "internalType": "uint256",
          "name": "tokenId",
          "type": "uint256"
        }
      ],
      "name": "getApproved",
      "outputs": [
        {
          "internalType": "address",
          "name": "",
          "type": "address"
        }
      ],
      "stateMutability": "view",
      "type": "function"
    },
    {
      "inputs": [
        {
          "internalType": "address",
          "name": "owner",
          "type": "address"
        },
        {
          "internalType": "address",
          "name": "operator",
          "type": "address"
        }
      ],
      "name": "isApprovedForAll",
      "outputs": [
        {
          "internalType": "bool",
          "name": "",
          "type": "bool"
        }
      ],
      "stateMutability": "view",
      "type": "function"
    },
    {
      "inputs": [],
      "name": "loanFactory",
      "outputs": [
        {
          "internalType": "address",
          "name": "",
          "type": "address"
        }
      ],
      "stateMutability": "view",
      "type": "function"
    },
    {
      "inputs": [
        {
          "internalType": "uint256",
          "name": "",
          "type": "uint256"
        }
      ],
      "name": "loanMetadata",
      "outputs": [
        {
          "internalType": "uint256",
          "name": "loanId",
          "type": "uint256"
        },
        {
          "internalType": "address",
          "name": "borrower",
          "type": "address"
        },
        {
          "internalType": "address",
          "name": "originalLender",
          "type": "address"
        },
        {
          "internalType": "uint256",
          "name": "mintedAt",
          "type": "uint256"
        }
      ],
      "stateMutability": "view",
      "type": "function"
    },
    {
      "inputs": [
        {
          "internalType": "address",
          "name": "to",
          "type": "address"
        },
        {
          "internalType": "uint256",
          "name": "loanId",
          "type": "uint256"
        }
      ],
      "name": "mint",
      "outputs": [
        {
          "internalType": "uint256",
          "name": "",
          "type": "uint256"
        }
      ],
      "stateMutability": "nonpayable",
      "type": "function"
    },
    {
      "inputs": [],
      "name": "name",
      "outputs": [
        {
          "internalType": "string",
          "name": "",
          "type": "string"
        }
      ],
      "stateMutability": "view",
      "type": "function"
    },
    {
      "inputs": [],
      "name": "owner",
      "outputs": [
        {
          "internalType": "address",
          "name": "",
          "type": "address"
        }
      ],
      "stateMutability": "view",
      "type": "function"
    },
    {
      "inputs": [
        {
          "internalType": "uint256",
          "name": "tokenId",
          "type": "uint256"
        }
      ],
      "name": "ownerOf",
      "outputs": [
        {
          "internalType": "address",
          "name": "",
          "type": "address"
        }
      ],
      "stateMutability": "view",
      "type": "function"
    },
    {
      "inputs": [],
      "name": "renounceOwnership",
      "outputs": [],
      "stateMutability": "nonpayable",
      "type": "function"
    },
    {
      "inputs": [
        {
          "internalType": "address",
          "name": "from",
          "type": "address"
        },
        {
          "internalType": "address",
          "name": "to",
          "type": "address"
        },
        {
          "internalType": "uint256",
          "name": "tokenId",
          "type": "uint256"
        }
      ],
      "name": "safeTransferFrom",
      "outputs": [],
      "stateMutability": "nonpayable",
      "type": "function"
    },
    {
      "inputs": [
        {
          "internalType": "address",
          "name": "from",
          "type": "address"
        },
        {
          "internalType": "address",
          "name": "to",
          "type": "address"
        },
        {
          "internalType": "uint256",
          "name": "tokenId",
          "type": "uint256"
        },
        {
          "internalType": "bytes",
          "name": "data",
          "type": "bytes"
        }
      ],
      "name": "safeTransferFrom",
      "outputs": [],
      "stateMutability": "nonpayable",
      "type": "function"
    },
    {
      "inputs": [
        {
          "internalType": "address",
          "name": "operator",
          "type": "address"
        },
        {
          "internalType": "bool",
          "name": "approved",
          "type": "bool"
        }
      ],
      "name": "setApprovalForAll",
      "outputs": [],
      "stateMutability": "nonpayable",
      "type": "function"
    },
    {
      "inputs": [
        {
          "internalType": "address",
          "name": "_loanFactory",
          "type": "address"
        }
      ],
      "name": "setLoanFactory",
      "outputs": [],
      "stateMutability": "nonpayable",
      "type": "function"
    },
    {
      "inputs": [
        {
          "internalType": "bytes4",
          "name": "interfaceId",
          "type": "bytes4"
        }
      ],
      "name": "supportsInterface",
      "outputs": [
        {
          "internalType": "bool",
          "name": "",
          "type": "bool"
        }
      ],
      "stateMutability": "view",
      "type": "function"
    },
    {
      "inputs": [],
      "name": "symbol",
      "outputs": [
        {
          "internalType": "string",
          "name": "",
          "type": "string"
        }
      ],
      "stateMutability": "view",
      "type": "function"
    },
    {
      "inputs": [
        {
          "internalType": "uint256",
          "name": "tokenId",
          "type": "uint256"
        }
      ],
      "name": "tokenURI",
      "outputs": [
        {
          "internalType": "string",
          "name": "",
          "type": "string"
        }
      ],
      "stateMutability": "view",
      "type": "function"
    },
    {
      "inputs": [
        {
          "internalType": "address",
          "name": "from",
          "type": "address"
        },
        {
          "internalType": "address",
          "name": "to",
          "type": "address"
        },
        {
          "internalType": "uint256",
          "name": "tokenId",
          "type": "uint256"
        }
      ],
      "name": "transferFrom",
      "outputs": [],
      "stateMutability": "nonpayable",
      "type": "function"
    },
    {
      "inputs": [
        {
          "internalType": "address",
          "name": "newOwner",
          "type": "address"
        }
      ],
      "name": "transferOwnership",
      "outputs": [],
      "stateMutability": "nonpayable",
      "type": "function"
    }
  ],
  "bytecode": "0x60806040523480156200001157600080fd5b50336040518060400160405280600e81526020016d13195b9bd848131bd85b8813919560921b81525060405180604001604052806005815260200164262627a0a760d91b8152508160009081620000699190620001b3565b506001620000788282620001b3565b5050506001600160a01b038116620000aa57604051631e4fbdf760e01b81526000600482015260240160405180910390fd5b620000b581620000bc565b506200027f565b600680546001600160a01b038381166001600160a01b0319831681179093556040519116919082907f8be0079c531659141344cd1fd0a4f28419497f9722a3daafe3b4186f6b6457e090600090a35050565b634e487b7160e01b600052604160045260246000fd5b600181811c908216806200013957607f821691505b6020821081036200015a57634e487b7160e01b600052602260045260246000fd5b50919050565b601f821115620001ae57600081815260208120601f850160051c81016020861015620001895750805b601f850160051c820191505b81811015620001aa5782815560010162000195565b5050505b505050565b81516001600160401b03811115620001cf57620001cf6200010e565b620001e781620001e0845462000124565b8462000160565b602080601f8311600181146200021f5760008415620002065750858301515b600019600386901b1c1916600185901b178555620001aa565b600085815260208120601f198616915b8281101562000250578886015182559484019460019091019084016200022f565b50858210156200026f5787850151600019600388901b60f8161c191681555b5050505050600190811b01905550565b61135f806200028f6000396000f3fe608060405234801561001057600080fd5b50600436106101375760003560e01c8063715018a6116100b8578063b37ed8cd1161007c578063b37ed8cd14610280578063b88d4fde14610293578063c87b56dd146102a6578063e6bf24aa146102b9578063e985e9c51461032b578063f2fde38b1461033e57600080fd5b8063715018a61461023957806386a31998146102415780638da5cb5b1461025457806395d89b4114610265578063a22cb4651461026d57600080fd5b806340c10f19116100ff57806340c10f19146101cc57806342842e0e146101ed57806342966c68146102005780636352211e1461021357806370a082311461022657600080fd5b806301ffc9a71461013c57806306fdde0314610164578063081812fc14610179578063095ea7b3146101a457806323b872dd146101b9575b600080fd5b61014f61014a366004610fb2565b610351565b60405190151581526020015b60405180910390f35b61016c6103a3565b60405161015b9190611026565b61018c610187366004611039565b610435565b6040516001600160a01b03909116815260200161015b565b6101b76101b236600461106e565b61045e565b005b6101b76101c7366004611098565b61046d565b6101df6101da36600461106e565b6104fd565b60405190815260200161015b565b6101b76101fb366004611098565b6105da565b6101b761020e366004611039565b6105fa565b61018c610221366004611039565b610658565b6101df6102343660046110d4565b610663565b6101b76106ab565b6101b761024f3660046110d4565b6106bf565b6006546001600160a01b031661018c565b61016c610731565b6101b761027b3660046110ef565b610740565b60075461018c906001600160a01b031681565b6101b76102a1366004611141565b61074b565b61016c6102b4366004611039565b610763565b6102fb6102c7366004611039565b600860205260009081526040902080546001820154600283015460039093015491926001600160a01b039182169291169084565b60405161015b94939291909384526001600160a01b03928316602085015291166040830152606082015260800190565b61014f61033936600461121d565b61079e565b6101b761034c3660046110d4565b6107cc565b60006001600160e01b031982166380ac58cd60e01b148061038257506001600160e01b03198216635b5e139f60e01b145b8061039d57506301ffc9a760e01b6001600160e01b03198316145b92915050565b6060600080546103b290611250565b80601f01602080910402602001604051908101604052809291908181526020018280546103de90611250565b801561042b5780601f106104005761010080835404028352916020019161042b565b820191906000526020600020905b81548152906001019060200180831161040e57829003601f168201915b5050505050905090565b600061044082610807565b506000828152600460205260409020546001600160a01b031661039d565b610469828233610840565b5050565b6001600160a01b03821661049c57604051633250574960e11b8152600060048201526024015b60405180910390fd5b60006104a983833361084d565b9050836001600160a01b0316816001600160a01b0316146104f7576040516364283d7b60e01b81526001600160a01b0380861660048301526024820184905282166044820152606401610493565b50505050565b6007546000906001600160a01b031633146105525760405162461bcd60e51b815260206004820152601560248201527413db9b1e48199858dd1bdc9e4818d85b8818d85b1b605a1b6044820152606401610493565b8161055d8482610946565b60408051608081018252848152600060208083018281526001600160a01b03898116858701908152426060870190815288865260089094529590932093518455516001840180549184166001600160a01b031992831617905593516002840180549190931694169390931790559051600390910155905092915050565b6105f58383836040518060200160405280600081525061074b565b505050565b6007546001600160a01b0316331461064c5760405162461bcd60e51b815260206004820152601560248201527413db9b1e48199858dd1bdc9e4818d85b8818d85b1b605a1b6044820152606401610493565b61065581610960565b50565b600061039d82610807565b60006001600160a01b03821661068f576040516322718ad960e21b815260006004820152602401610493565b506001600160a01b031660009081526003602052604090205490565b6106b361099b565b6106bd60006109c8565b565b6106c761099b565b6001600160a01b03811661070f5760405162461bcd60e51b815260206004820152600f60248201526e496e76616c6964206164647265737360881b6044820152606401610493565b600780546001600160a01b0319166001600160a01b0392909216919091179055565b6060600180546103b290611250565b610469338383610a1a565b61075684848461046d565b6104f73385858585610ab9565b606061076e82610807565b5061077882610be4565b604051602001610788919061128a565b6040516020818303038152906040529050919050565b6001600160a01b03918216600090815260056020908152604080832093909416825291909152205460ff1690565b6107d461099b565b6001600160a01b0381166107fe57604051631e4fbdf760e01b815260006004820152602401610493565b610655816109c8565b6000818152600260205260408120546001600160a01b03168061039d57604051637e27328960e01b815260048101849052602401610493565b6105f58383836001610c77565b6000828152600260205260408120546001600160a01b039081169083161561087a5761087a818486610d7d565b6001600160a01b038116156108b857610897600085600080610c77565b6001600160a01b038116600090815260036020526040902080546000190190555b6001600160a01b038516156108e7576001600160a01b0385166000908152600360205260409020805460010190555b60008481526002602052604080822080546001600160a01b0319166001600160a01b0389811691821790925591518793918516917fddf252ad1be2c89b69c2b068fc378daa952ba7f163c4a11628f55a4df523b3ef91a4949350505050565b610469828260405180602001604052806000815250610de1565b600061096f600083600061084d565b90506001600160a01b03811661046957604051637e27328960e01b815260048101839052602401610493565b6006546001600160a01b031633146106bd5760405163118cdaa760e01b8152336004820152602401610493565b600680546001600160a01b038381166001600160a01b0319831681179093556040519116919082907f8be0079c531659141344cd1fd0a4f28419497f9722a3daafe3b4186f6b6457e090600090a35050565b6001600160a01b038216610a4c57604051630b61174360e31b81526001600160a01b0383166004820152602401610493565b6001600160a01b03838116600081815260056020908152604080832094871680845294825291829020805460ff191686151590811790915591519182527f17307eab39ab6107e8899845ad3d59bd9653f200f220920489ca2b5937696c31910160405180910390a3505050565b6001600160a01b0383163b15610bdd57604051630a85bd0160e11b81526001600160a01b0384169063150b7a0290610afb9088908890879087906004016112cf565b6020604051808303816000875af1925050508015610b36575060408051601f3d908101601f19168201909252610b339181019061130c565b60015b610b9f573d808015610b64576040519150601f19603f3d011682016040523d82523d6000602084013e610b69565b606091505b508051600003610b9757604051633250574960e11b81526001600160a01b0385166004820152602401610493565b805160208201fd5b6001600160e01b03198116630a85bd0160e11b14610bdb57604051633250574960e11b81526001600160a01b0385166004820152602401610493565b505b5050505050565b60606000610bf183610df9565b600101905060008167ffffffffffffffff811115610c1157610c1161112b565b6040519080825280601f01601f191660200182016040528015610c3b576020820181803683370190505b5090508181016020015b600019016f181899199a1a9b1b9c1cb0b131b232b360811b600a86061a8153600a8504945084610c4557509392505050565b8080610c8b57506001600160a01b03821615155b15610d4d576000610c9b84610807565b90506001600160a01b03831615801590610cc75750826001600160a01b0316816001600160a01b031614155b8015610cda5750610cd8818461079e565b155b15610d035760405163a9fbf51f60e01b81526001600160a01b0384166004820152602401610493565b8115610d4b5783856001600160a01b0316826001600160a01b03167f8c5be1e5ebec7d5bd14f71427d1e84f3dd0314c0f7b2291e5b200ac8c7c3b92560405160405180910390a45b505b5050600090815260046020526040902080546001600160a01b0319166001600160a01b0392909216919091179055565b610d88838383610ed1565b6105f5576001600160a01b038316610db657604051637e27328960e01b815260048101829052602401610493565b60405163177e802f60e01b81526001600160a01b038316600482015260248101829052604401610493565b610deb8383610f37565b6105f5336000858585610ab9565b60008072184f03e93ff9f4daa797ed6e38ed64bf6a1f0160401b8310610e385772184f03e93ff9f4daa797ed6e38ed64bf6a1f0160401b830492506040015b6d04ee2d6d415b85acef81000000008310610e64576d04ee2d6d415b85acef8100000000830492506020015b662386f26fc100008310610e8257662386f26fc10000830492506010015b6305f5e1008310610e9a576305f5e100830492506008015b6127108310610eae57612710830492506004015b60648310610ec0576064830492506002015b600a831061039d5760010192915050565b60006001600160a01b03831615801590610f2f5750826001600160a01b0316846001600160a01b03161480610f0b5750610f0b848461079e565b80610f2f57506000828152600460205260409020546001600160a01b038481169116145b949350505050565b6001600160a01b038216610f6157604051633250574960e11b815260006004820152602401610493565b6000610f6f8383600061084d565b90506001600160a01b038116156105f5576040516339e3563760e11b815260006004820152602401610493565b6001600160e01b03198116811461065557600080fd5b600060208284031215610fc457600080fd5b8135610fcf81610f9c565b9392505050565b60005b83811015610ff1578181015183820152602001610fd9565b50506000910152565b60008151808452611012816020860160208601610fd6565b601f01601f19169290920160200192915050565b602081526000610fcf6020830184610ffa565b60006020828403121561104b57600080fd5b5035919050565b80356001600160a01b038116811461106957600080fd5b919050565b6000806040838503121561108157600080fd5b61108a83611052565b946020939093013593505050565b6000806000606084860312156110ad57600080fd5b6110b684611052565b92506110c460208501611052565b9150604084013590509250925092565b6000602082840312156110e657600080fd5b610fcf82611052565b6000806040838503121561110257600080fd5b61110b83611052565b91506020830135801515811461112057600080fd5b809150509250929050565b634e487b7160e01b600052604160045260246000fd5b6000806000806080858703121561115757600080fd5b61116085611052565b935061116e60208601611052565b925060408501359150606085013567ffffffffffffffff8082111561119257600080fd5b818701915087601f8301126111a657600080fd5b8135818111156111b8576111b861112b565b604051601f8201601f19908116603f011681019083821181831017156111e0576111e061112b565b816040528281528a60208487010111156111f957600080fd5b82602086016020830137600060208483010152809550505050505092959194509250565b6000806040838503121561123057600080fd5b61123983611052565b915061124760208401611052565b90509250929050565b600181811c9082168061126457607f821691505b60208210810361128457634e487b7160e01b600052602260045260246000fd5b50919050565b7f68747470733a2f2f6c656e6f612e6170702f6170692f6e66742f0000000000008152600082516112c281601a850160208701610fd6565b91909101601a0192915050565b6001600160a01b038581168252841660208201526040810183905260806060820181905260009061130290830184610ffa565b9695505050505050565b60006020828403121561131e57600080fd5b8151610fcf81610f9c56fea2646970667358221220c851b7fbd37b99a6848e171c8af9d6fc3f24be914a3b6c4b06d0e012bb2224fd64736f6c63430008140033",
  "linkReferences": {},
  "deployedLinkReferences": {}
}