{
  "_format": "hh-sol-artifact-1",
  "contractName": "LoanFactory",
  "sourceName": "contracts/core/LoanFactory.sol",
  "abi": [
    {
      "inputs": [
        {
          "internalType": "address",
          "name": "_loanNFT",
          "type": "address"
        },
        {
          "internalType": "address",
          "name": "_collateralVault",
          "type": "address"
        }
      ],
      "stateMutability": "nonpayable",
      "type": "constructor"
    },
    {
      "inputs": [
        {
          "internalType": "address",
          "name": "owner",
          "type": "address"
        }
      ],
      "name": "OwnableInvalidOwner",
      "type": "error"
    },
    {
      "inputs": [
        {
          "internalType": "address",
          "name": "account",
          "type": "address"
        }
      ],
      "name": "OwnableUnauthorizedAccount",
      "type": "error"
    },
    {
      "inputs": [],
      "name": "ReentrancyGuardReentrantCall",
      "type": "error"
    },
    {
      "inputs": [
        {
          "internalType": "address",
          "name": "token",
          "type": "address"
        }
      ],
      "name": "SafeERC20FailedOperation",
      "type": "error"
    },
    {
      "anonymous": false,
      "inputs": [
        {
          "indexed": true,
          "internalType": "address",
          "name": "token",
          "type": "address"
        },
        {
          "indexed": false,
          "internalType": "uint256",
          "name": "amount",
          "type": "uint256"
        },
        {
          "indexed": false,
          "internalType": "string",
          "name": "feeType",
          "type": "string"
        }
      ],
      "name": "FeeCollected",
      "type": "event"
    },
    {
      "anonymous": false,
      "inputs": [
        {
          "indexed": true,
          "internalType": "address",
          "name": "oldCollector",
          "type": "address"
        },
        {
          "indexed": true,
          "internalType": "address",
          "name": "newCollector",
          "type": "address"
        }
      ],
      "name": "FeeCollectorUpdated",
      "type": "event"
    },
    {
      "anonymous": false,
      "inputs": [
        {
          "indexed": false,
          "internalType": "uint256",
          "name": "originationFee",
          "type": "uint256"
        },
        {
          "indexed": false,
          "internalType": "uint256",
          "name": "interestFee",
          "type": "uint256"
        }
      ],
      "name": "FeeConfigUpdated",
      "type": "event"
    },
    {
      "anonymous": false,
      "inputs": [
        {
          "indexed": true,
          "internalType": "address",
          "name": "token",
          "type": "address"
        },
        {
          "indexed": false,
          "internalType": "uint256",
          "name": "amount",
          "type": "uint256"
        },
        {
          "indexed": true,
          "internalType": "address",
          "name": "recipient",
          "type": "address"
        }
      ],
      "name": "FeeWithdrawn",
      "type": "event"
    },
    {
      "anonymous": false,
      "inputs": [
        {
          "indexed": true,
          "internalType": "uint256",
          "name": "loanId",
          "type": "uint256"
        }
      ],
      "name": "LoanCancelled",
      "type": "event"
    },
    {
      "anonymous": false,
      "inputs": [
        {
          "indexed": true,
          "internalType": "uint256",
          "name": "loanId",
          "type": "uint256"
        },
        {
          "indexed": false,
          "internalType": "uint256",
          "name": "timestamp",
          "type": "uint256"
        }
      ],
      "name": "LoanDefaulted",
      "type": "event"
    },
    {
      "anonymous": false,
      "inputs": [
        {
          "indexed": true,
          "internalType": "uint256",
          "name": "loanId",
          "type": "uint256"
        },
        {
          "indexed": true,
          "internalType": "address",
          "name": "lender",
          "type": "address"
        },
        {
          "indexed": false,
          "internalType": "uint256",
          "name": "timestamp",
          "type": "uint256"
        }
      ],
      "name": "LoanFunded",
      "type": "event"
    },
    {
      "anonymous": false,
      "inputs": [
        {
          "indexed": true,
          "internalType": "uint256",
          "name": "loanId",
          "type": "uint256"
        },
        {
          "indexed": false,
          "internalType": "uint256",
          "name": "timestamp",
          "type": "uint256"
        }
      ],
      "name": "LoanRepaid",
      "type": "event"
    },
    {
      "anonymous": false,
      "inputs": [
        {
          "indexed": true,
          "internalType": "uint256",
          "name": "loanId",
          "type": "uint256"
        },
        {
          "indexed": true,
          "internalType": "address",
          "name": "borrower",
          "type": "address"
        },
        {
          "indexed": false,
          "internalType": "address",
          "name": "loanToken",
          "type": "address"
        },
        {
          "indexed": false,
          "internalType": "uint256",
          "name": "loanAmount",
          "type": "uint256"
        },
        {
          "indexed": false,
          "internalType": "uint256",
          "name": "repaymentAmount",
          "type": "uint256"
        },
        {
          "indexed": false,
          "internalType": "address",
          "name": "collateralToken",
          "type": "address"
        },
        {
          "indexed": false,
          "internalType": "uint256",
          "name": "collateralAmount",
          "type": "uint256"
        },
        {
          "indexed": false,
          "internalType": "uint256",
          "name": "duration",
          "type": "uint256"
        }
      ],
      "name": "LoanRequestCreated",
      "type": "event"
    },
    {
      "anonymous": false,
      "inputs": [
        {
          "indexed": true,
          "internalType": "address",
          "name": "previousOwner",
          "type": "address"
        },
        {
          "indexed": true,
          "internalType": "address",
          "name": "newOwner",
          "type": "address"
        }
      ],
      "name": "OwnershipTransferred",
      "type": "event"
    },
    {
      "anonymous": false,
      "inputs": [
        {
          "indexed": true,
          "internalType": "address",
          "name": "token",
          "type": "address"
        },
        {
          "indexed": false,
          "internalType": "string",
          "name": "symbol",
          "type": "string"
        },
        {
          "indexed": false,
          "internalType": "uint256",
          "name": "minAmount",
          "type": "uint256"
        },
        {
          "indexed": false,
          "internalType": "uint256",
          "name": "maxAmount",
          "type": "uint256"
        }
      ],
      "name": "TokenAdded",
      "type": "event"
    },
    {
      "anonymous": false,
      "inputs": [
        {
          "indexed": true,
          "internalType": "address",
          "name": "token",
          "type": "address"
        },
        {
          "indexed": false,
          "internalType": "string",
          "name": "symbol",
          "type": "string"
        }
      ],
      "name": "TokenRemoved",
      "type": "event"
    },
    {
      "inputs": [],
      "name": "MAX_DURATION",
      "outputs": [
        {
          "internalType": "uint256",
          "name": "",
          "type": "uint256"
        }
      ],
      "stateMutability": "view",
      "type": "function"
    },
    {
      "inputs": [],
      "name": "MAX_INTEREST_RATE",
      "outputs": [
        {
          "internalType": "uint256",
          "name": "",
          "type": "uint256"
        }
      ],
      "stateMutability": "view",
      "type": "function"
    },
    {
      "inputs": [],
      "name": "NATIVE_ETH",
      "outputs": [
        {
          "internalType": "address",
          "name": "",
          "type": "address"
        }
      ],
      "stateMutability": "view",
      "type": "function"
    },
    {
      "inputs": [],
      "name": "SEPOLIA_DAI",
      "outputs": [
        {
          "internalType": "address",
          "name": "",
          "type": "address"
        }
      ],
      "stateMutability": "view",
      "type": "function"
    },
    {
      "inputs": [],
      "name": "SEPOLIA_LINK",
      "outputs": [
        {
          "internalType": "address",
          "name": "",
          "type": "address"
        }
      ],
      "stateMutability": "view",
      "type": "function"
    },
    {
      "inputs": [],
      "name": "SEPOLIA_USDC",
      "outputs": [
        {
          "internalType": "address",
          "name": "",
          "type": "address"
        }
      ],
      "stateMutability": "view",
      "type": "function"
    },
    {
      "inputs": [],
      "name": "SEPOLIA_WETH",
      "outputs": [
        {
          "internalType": "address",
          "name": "",
          "type": "address"
        }
      ],
      "stateMutability": "view",
      "type": "function"
    },
    {
      "inputs": [
        {
          "internalType": "address",
          "name": "token",
          "type": "address"
        },
        {
          "internalType": "uint256",
          "name": "minAmount",
          "type": "uint256"
        },
        {
          "internalType": "uint256",
          "name": "maxAmount",
          "type": "uint256"
        },
        {
          "internalType": "string",
          "name": "symbol",
          "type": "string"
        },
        {
          "internalType": "uint8",
          "name": "decimals",
          "type": "uint8"
        }
      ],
      "name": "addSupportedToken",
      "outputs": [],
      "stateMutability": "nonpayable",
      "type": "function"
    },
    {
      "inputs": [
        {
          "internalType": "address",
          "name": "",
          "type": "address"
        },
        {
          "internalType": "uint256",
          "name": "",
          "type": "uint256"
        }
      ],
      "name": "borrowerLoans",
      "outputs": [
        {
          "internalType": "uint256",
          "name": "",
          "type": "uint256"
        }
      ],
      "stateMutability": "view",
      "type": "function"
    },
    {
      "inputs": [
        {
          "internalType": "uint256",
          "name": "loanId",
          "type": "uint256"
        }
      ],
      "name": "cancelLoan",
      "outputs": [],
      "stateMutability": "nonpayable",
      "type": "function"
    },
    {
      "inputs": [],
      "name": "collateralVault",
      "outputs": [
        {
          "internalType": "contract ICollateralVault",
          "name": "",
          "type": "address"
        }
      ],
      "stateMutability": "view",
      "type": "function"
    },
    {
      "inputs": [
        {
          "internalType": "address",
          "name": "_loanToken",
          "type": "address"
        },
        {
          "internalType": "uint256",
          "name": "_loanAmount",
          "type": "uint256"
        },
        {
          "internalType": "uint256",
          "name": "_interestRate",
          "type": "uint256"
        },
        {
          "internalType": "uint256",
          "name": "_durationDays",
          "type": "uint256"
        },
        {
          "internalType": "address",
          "name": "_collateralToken",
          "type": "address"
        },
        {
          "internalType": "uint256",
          "name": "_collateralAmount",
          "type": "uint256"
        }
      ],
      "name": "createLoanRequest",
      "outputs": [
        {
          "internalType": "uint256",
          "name": "",
          "type": "uint256"
        }
      ],
      "stateMutability": "payable",
      "type": "function"
    },
    {
      "inputs": [],
      "name": "feeCollector",
      "outputs": [
        {
          "internalType": "address",
          "name": "",
          "type": "address"
        }
      ],
      "stateMutability": "view",
      "type": "function"
    },
    {
      "inputs": [
        {
          "internalType": "address",
          "name": "",
          "type": "address"
        }
      ],
      "name": "feesByToken",
      "outputs": [
        {
          "internalType": "uint256",
          "name": "",
          "type": "uint256"
        }
      ],
      "stateMutability": "view",
      "type": "function"
    },
    {
      "inputs": [
        {
          "internalType": "uint256",
          "name": "loanId",
          "type": "uint256"
        }
      ],
      "name": "fundLoan",
      "outputs": [],
      "stateMutability": "payable",
      "type": "function"
    },
    {
      "inputs": [],
      "name": "getAllCollectedFees",
      "outputs": [
        {
          "internalType": "uint256",
          "name": "ethFees",
          "type": "uint256"
        },
        {
          "internalType": "uint256",
          "name": "daiFees",
          "type": "uint256"
        },
        {
          "internalType": "uint256",
          "name": "usdcFees",
          "type": "uint256"
        },
        {
          "internalType": "uint256",
          "name": "linkFees",
          "type": "uint256"
        },
        {
          "internalType": "uint256",
          "name": "wethFees",
          "type": "uint256"
        }
      ],
      "stateMutability": "view",
      "type": "function"
    },
    {
      "inputs": [
        {
          "internalType": "address",
          "name": "borrower",
          "type": "address"
        }
      ],
      "name": "getBorrowerLoans",
      "outputs": [
        {
          "internalType": "uint256[]",
          "name": "",
          "type": "uint256[]"
        }
      ],
      "stateMutability": "view",
      "type": "function"
    },
    {
      "inputs": [
        {
          "internalType": "address",
          "name": "token",
          "type": "address"
        }
      ],
      "name": "getCollectedFees",
      "outputs": [
        {
          "internalType": "uint256",
          "name": "",
          "type": "uint256"
        }
      ],
      "stateMutability": "view",
      "type": "function"
    },
    {
      "inputs": [
        {
          "internalType": "address",
          "name": "lender",
          "type": "address"
        }
      ],
      "name": "getLenderLoans",
      "outputs": [
        {
          "internalType": "uint256[]",
          "name": "",
          "type": "uint256[]"
        }
      ],
      "stateMutability": "view",
      "type": "function"
    },
    {
      "inputs": [
        {
          "internalType": "uint256",
          "name": "loanId",
          "type": "uint256"
        }
      ],
      "name": "getLoan",
      "outputs": [
        {
          "components": [
            {
              "internalType": "address",
              "name": "borrower",
              "type": "address"
            },
            {
              "internalType": "address",
              "name": "lender",
              "type": "address"
            },
            {
              "internalType": "address",
              "name": "loanToken",
              "type": "address"
            },
            {
              "internalType": "uint256",
              "name": "loanAmount",
              "type": "uint256"
            },
            {
              "internalType": "uint256",
              "name": "repaymentAmount",
              "type": "uint256"
            },
            {
              "internalType": "address",
              "name": "collateralToken",
              "type": "address"
            },
            {
              "internalType": "uint256",
              "name": "collateralAmount",
              "type": "uint256"
            },
            {
              "internalType": "uint256",
              "name": "duration",
              "type": "uint256"
            },
            {
              "internalType": "uint256",
              "name": "deadline",
              "type": "uint256"
            },
            {
              "internalType": "uint256",
              "name": "createdAt",
              "type": "uint256"
            },
            {
              "internalType": "enum LoanFactory.LoanStatus",
              "name": "status",
              "type": "uint8"
            }
          ],
          "internalType": "struct LoanFactory.LoanRequest",
          "name": "",
          "type": "tuple"
        }
      ],
      "stateMutability": "view",
      "type": "function"
    },
    {
      "inputs": [],
      "name": "interestFeePercent",
      "outputs": [
        {
          "internalType": "uint256",
          "name": "",
          "type": "uint256"
        }
      ],
      "stateMutability": "view",
      "type": "function"
    },
    {
      "inputs": [
        {
          "internalType": "address",
          "name": "token",
          "type": "address"
        }
      ],
      "name": "isTokenSupported",
      "outputs": [
        {
          "internalType": "bool",
          "name": "",
          "type": "bool"
        }
      ],
      "stateMutability": "view",
      "type": "function"
    },
    {
      "inputs": [
        {
          "internalType": "address",
          "name": "",
          "type": "address"
        },
        {
          "internalType": "uint256",
          "name": "",
          "type": "uint256"
        }
      ],
      "name": "lenderLoans",
      "outputs": [
        {
          "internalType": "uint256",
          "name": "",
          "type": "uint256"
        }
      ],
      "stateMutability": "view",
      "type": "function"
    },
    {
      "inputs": [
        {
          "internalType": "uint256",
          "name": "loanId",
          "type": "uint256"
        }
      ],
      "name": "liquidateLoan",
      "outputs": [],
      "stateMutability": "nonpayable",
      "type": "function"
    },
    {
      "inputs": [],
      "name": "loanNFT",
      "outputs": [
        {
          "internalType": "contract ILoanNFT",
          "name": "",
          "type": "address"
        }
      ],
      "stateMutability": "view",
      "type": "function"
    },
    {
      "inputs": [
        {
          "internalType": "uint256",
          "name": "",
          "type": "uint256"
        }
      ],
      "name": "loans",
      "outputs": [
        {
          "internalType": "address",
          "name": "borrower",
          "type": "address"
        },
        {
          "internalType": "address",
          "name": "lender",
          "type": "address"
        },
        {
          "internalType": "address",
          "name": "loanToken",
          "type": "address"
        },
        {
          "internalType": "uint256",
          "name": "loanAmount",
          "type": "uint256"
        },
        {
          "internalType": "uint256",
          "name": "repaymentAmount",
          "type": "uint256"
        },
        {
          "internalType": "address",
          "name": "collateralToken",
          "type": "address"
        },
        {
          "internalType": "uint256",
          "name": "collateralAmount",
          "type": "uint256"
        },
        {
          "internalType": "uint256",
          "name": "duration",
          "type": "uint256"
        },
        {
          "internalType": "uint256",
          "name": "deadline",
          "type": "uint256"
        },
        {
          "internalType": "uint256",
          "name": "createdAt",
          "type": "uint256"
        },
        {
          "internalType": "enum LoanFactory.LoanStatus",
          "name": "status",
          "type": "uint8"
        }
      ],
      "stateMutability": "view",
      "type": "function"
    },
    {
      "inputs": [],
      "name": "nextLoanId",
      "outputs": [
        {
          "internalType": "uint256",
          "name": "",
          "type": "uint256"
        }
      ],
      "stateMutability": "view",
      "type": "function"
    },
    {
      "inputs": [],
      "name": "originationFeePercent",
      "outputs": [
        {
          "internalType": "uint256",
          "name": "",
          "type": "uint256"
        }
      ],
      "stateMutability": "view",
      "type": "function"
    },
    {
      "inputs": [],
      "name": "owner",
      "outputs": [
        {
          "internalType": "address",
          "name": "",
          "type": "address"
        }
      ],
      "stateMutability": "view",
      "type": "function"
    },
    {
      "inputs": [
        {
          "internalType": "address",
          "name": "token",
          "type": "address"
        }
      ],
      "name": "removeSupportedToken",
      "outputs": [],
      "stateMutability": "nonpayable",
      "type": "function"
    },
    {
      "inputs": [],
      "name": "renounceOwnership",
      "outputs": [],
      "stateMutability": "nonpayable",
      "type": "function"
    },
    {
      "inputs": [
        {
          "internalType": "uint256",
          "name": "loanId",
          "type": "uint256"
        }
      ],
      "name": "repayLoan",
      "outputs": [],
      "stateMutability": "payable",
      "type": "function"
    },
    {
      "inputs": [
        {
          "internalType": "address",
          "name": "_newCollector",
          "type": "address"
        }
      ],
      "name": "setFeeCollector",
      "outputs": [],
      "stateMutability": "nonpayable",
      "type": "function"
    },
    {
      "inputs": [
        {
          "internalType": "uint256",
          "name": "_originationFee",
          "type": "uint256"
        },
        {
          "internalType": "uint256",
          "name": "_interestFee",
          "type": "uint256"
        }
      ],
      "name": "setFeePercents",
      "outputs": [],
      "stateMutability": "nonpayable",
      "type": "function"
    },
    {
      "inputs": [
        {
          "internalType": "address",
          "name": "",
          "type": "address"
        }
      ],
      "name": "supportedTokens",
      "outputs": [
        {
          "internalType": "bool",
          "name": "enabled",
          "type": "bool"
        },
        {
          "internalType": "uint256",
          "name": "minLoanAmount",
          "type": "uint256"
        },
        {
          "internalType": "uint256",
          "name": "maxLoanAmount",
          "type": "uint256"
        },
        {
          "internalType": "string",
          "name": "symbol",
          "type": "string"
        },
        {
          "internalType": "uint8",
          "name": "decimals",
          "type": "uint8"
        }
      ],
      "stateMutability": "view",
      "type": "function"
    },
    {
      "inputs": [],
      "name": "totalFeesCollected",
      "outputs": [
        {
          "internalType": "uint256",
          "name": "",
          "type": "uint256"
        }
      ],
      "stateMutability": "view",
      "type": "function"
    },
    {
      "inputs": [
        {
          "internalType": "address",
          "name": "newOwner",
          "type": "address"
        }
      ],
      "name": "transferOwnership",
      "outputs": [],
      "stateMutability": "nonpayable",
      "type": "function"
    },
    {
      "inputs": [],
      "name": "withdrawAllFees",
      "outputs": [],
      "stateMutability": "nonpayable",
      "type": "function"
    },
    {
      "inputs": [
        {
          "internalType": "address",
          "name": "token",
          "type": "address"
        }
      ],
      "name": "withdrawFees",
      "outputs": [],
      "stateMutability": "nonpayable",
      "type": "function"
    },
    {
      "stateMutability": "payable",
      "type": "receive"
    }
  ],
  "bytecode": "0x608060405260326002556101f460035560016009553480156200002157600080fd5b5060405162003ae038038062003ae0833981016040819052620000449162000729565b33806200006b57604051631e4fbdf760e01b81526000600482015260240160405180910390fd5b6200007681620000c8565b5060018055600780546001600160a01b038085166001600160a01b03199283161790925560088054928416928216929092179091556004805490911633179055620000c062000118565b5050620008d2565b600080546001600160a01b038381166001600160a01b0319831681178455604051919092169283917f8be0079c531659141344cd1fd0a4f28419497f9722a3daafe3b4186f6b6457e09190a35050565b6040805160a0810182526001815268056bc75e2d63100000602080830191825269021e19e0c9bab24000008385019081528451808601909552600385526244414960e81b85830152606084019485526012608085015273ff34b3d4aee8ddcd6f9afffb6fe49bd371b8a357600052600b90915282517f9c89f82744a6cafa0aa58d6b6d878b5c2a9e35d3cfc8f8194f5424c0e1458885805460ff191691151591909117815591517f9c89f82744a6cafa0aa58d6b6d878b5c2a9e35d3cfc8f8194f5424c0e145888655517f9c89f82744a6cafa0aa58d6b6d878b5c2a9e35d3cfc8f8194f5424c0e14588875591519091907f9c89f82744a6cafa0aa58d6b6d878b5c2a9e35d3cfc8f8194f5424c0e14588889062000237908262000806565b506080918201516004918201805460ff90921660ff199283161790556040805160a081018252600181526305f5e10060208083019182526402540be4008385019081528451808601909552958452635553444360e01b84820152606083019384526006968301969096527394a9d9ac8a22534e3faca9f4e7f2e2cf85d5e4c8600052600b90955280517f97971b5ab26cc8c1c7722dd28f681b52156ac62a7d3168c14ab8fe529049b92a80549115159190941617835593517f97971b5ab26cc8c1c7722dd28f681b52156ac62a7d3168c14ab8fe529049b92b5591517f97971b5ab26cc8c1c7722dd28f681b52156ac62a7d3168c14ab8fe529049b92c5590517f97971b5ab26cc8c1c7722dd28f681b52156ac62a7d3168c14ab8fe529049b92d9062000365908262000806565b506080918201516004918201805460ff90921660ff199283161790556040805160a08101825260018152678ac7230489e800006020808301918252683635c9adc5dea000008385019081528451808601909552958452634c494e4b60e01b848201526060830193845260129683019690965273779877a7b0d9e8603169ddbd7836e478b4624789600052600b90955280517fd574214b1d31767fc1bddd620532523996abe5cd47de51777ab9598eaeb99fae80549115159190941617835593517fd574214b1d31767fc1bddd620532523996abe5cd47de51777ab9598eaeb99faf5591517fd574214b1d31767fc1bddd620532523996abe5cd47de51777ab9598eaeb99fb05590517fd574214b1d31767fc1bddd620532523996abe5cd47de51777ab9598eaeb99fb1906200049b908262000806565b506080918201516004909101805460ff90921660ff199283161790556040805160a08101825260018152662386f26fc100006020808301918252678ac7230489e800008385019081528451808601909552600385526208aa8960eb1b858301526060840194855260129684019690965260008052600b905281517fdf7de25b7f1fd6d0b5205f0e18f1f35bd7b8d84cce336588d184533ce43a6f76805491151591909516178455517fdf7de25b7f1fd6d0b5205f0e18f1f35bd7b8d84cce336588d184533ce43a6f775592517fdf7de25b7f1fd6d0b5205f0e18f1f35bd7b8d84cce336588d184533ce43a6f7855517fdf7de25b7f1fd6d0b5205f0e18f1f35bd7b8d84cce336588d184533ce43a6f7990620005b8908262000806565b506080918201516004918201805460ff90921660ff199283161790556040805160a08101825260018152662386f26fc100006020808301918252678ac7230489e800008385019081528451808601909552958452630ae8aa8960e31b848201526060830193845260129683019690965273fff9976782d46cc05630d1f6ebab18b2324d6b14600052600b90955280517ffd29b8d309784d7c254d29d1d500399f9cd4dee174073724264331d25d94610a80549115159190941617835593517ffd29b8d309784d7c254d29d1d500399f9cd4dee174073724264331d25d94610b5591517ffd29b8d309784d7c254d29d1d500399f9cd4dee174073724264331d25d94610c5590517ffd29b8d309784d7c254d29d1d500399f9cd4dee174073724264331d25d94610d90620006ec908262000806565b50608091909101516004909101805460ff191660ff909216919091179055565b80516001600160a01b03811681146200072457600080fd5b919050565b600080604083850312156200073d57600080fd5b62000748836200070c565b915062000758602084016200070c565b90509250929050565b634e487b7160e01b600052604160045260246000fd5b600181811c908216806200078c57607f821691505b602082108103620007ad57634e487b7160e01b600052602260045260246000fd5b50919050565b601f8211156200080157600081815260208120601f850160051c81016020861015620007dc5750805b601f850160051c820191505b81811015620007fd57828155600101620007e8565b5050505b505050565b81516001600160401b0381111562000822576200082262000761565b6200083a8162000833845462000777565b84620007b3565b602080601f831160018114620008725760008415620008595750858301515b600019600386901b1c1916600185901b178555620007fd565b600085815260208120601f198616915b82811015620008a35788860151825594840194600190910190840162000882565b5085821015620008c25787850151600019600388901b60f8161c191681555b5050505050600190811b01905550565b6131fe80620008e26000396000f3fe6080604052600436106102345760003560e01c8063a42dce801161012e578063df8287c8116100ab578063f199166f1161006f578063f199166f1461074a578063f2fde38b14610760578063f5cebf9a14610780578063fd6d68901461086a578063fe8925f41461089257600080fd5b8063df8287c81461061d578063e1ec3c681461063d578063e3ed1902146106dd578063eee8b7ff146106fd578063eeeb0c171461072a57600080fd5b8063b235af0e116100f2578063b235af0e14610575578063bdb977fe1461059d578063bdbfa3de146105bd578063c415b95c146105dd578063ccdd9f5d146105fd57600080fd5b8063a42dce80146104e9578063a882f97114610509578063ab7b1c8914610536578063af236af414610549578063b1724b461461055e57600080fd5b806368c4ac26116101bc578063846b909a11610180578063846b909a1461044457806387c51459146104575780638da5cb5b1461046d57806396a0e3ff1461048b578063a3daed99146104b357600080fd5b806368c4ac2614610382578063715018a6146103b357806375151b63146103c85780637631919014610411578063839552e21461043157600080fd5b806334a411771161020357806334a41177146102d75780633cdb72f1146102f75780633e0624a014610317578063504006ca1461033f57806360c6d8ae1461036c57600080fd5b8063011e1167146102405780630bece79c14610272578063164e68de1461029257806334855d14146102b457600080fd5b3661023b57005b600080fd5b34801561024c57600080fd5b50610255600081565b6040516001600160a01b0390911681526020015b60405180910390f35b34801561027e57600080fd5b50600854610255906001600160a01b031681565b34801561029e57600080fd5b506102b26102ad366004612acf565b6108a8565b005b3480156102c057600080fd5b506102c9603281565b604051908152602001610269565b3480156102e357600080fd5b50600754610255906001600160a01b031681565b34801561030357600080fd5b506102c9610312366004612af3565b610a1b565b34801561032357600080fd5b506102557394a9d9ac8a22534e3faca9f4e7f2e2cf85d5e4c881565b34801561034b57600080fd5b5061035f61035a366004612b1f565b610a4c565b6040516102699190612b70565b34801561037857600080fd5b506102c960055481565b34801561038e57600080fd5b506103a261039d366004612acf565b610b1f565b604051610269959493929190612c74565b3480156103bf57600080fd5b506102b2610bdf565b3480156103d457600080fd5b506104016103e3366004612acf565b6001600160a01b03166000908152600b602052604090205460ff1690565b6040519015158152602001610269565b34801561041d57600080fd5b506102b261042c366004612acf565b610bf3565b6102c961043f366004612cb0565b610cff565b6102b2610452366004612b1f565b61139e565b34801561046357600080fd5b506102c960095481565b34801561047957600080fd5b506000546001600160a01b0316610255565b34801561049757600080fd5b5061025573779877a7b0d9e8603169ddbd7836e478b462478981565b3480156104bf57600080fd5b506102c96104ce366004612acf565b6001600160a01b031660009081526006602052604090205490565b3480156104f557600080fd5b506102b2610504366004612acf565b61184b565b34801561051557600080fd5b506102c9610524366004612acf565b60066020526000908152604090205481565b6102b2610544366004612b1f565b6118fb565b34801561055557600080fd5b506102b2611e81565b34801561056a57600080fd5b506102c96276a70081565b34801561058157600080fd5b5061025573fff9976782d46cc05630d1f6ebab18b2324d6b1481565b3480156105a957600080fd5b506102b26105b8366004612d0e565b612194565b3480156105c957600080fd5b506102b26105d8366004612b1f565b61227f565b3480156105e957600080fd5b50600454610255906001600160a01b031681565b34801561060957600080fd5b506102b2610618366004612b1f565b6123ea565b34801561062957600080fd5b506102b2610638366004612d5c565b6125cb565b34801561064957600080fd5b506106c6610658366004612b1f565b600a60208190526000918252604090912080546001820154600283015460038401546004850154600586015460068701546007880154600889015460098a015499909a01546001600160a01b039889169a978916999689169895979496939095169491939092909160ff168b565b6040516102699b9a99989796959493929190612e44565b3480156106e957600080fd5b506102c96106f8366004612af3565b612744565b34801561070957600080fd5b5061071d610718366004612acf565b612760565b6040516102699190612eb7565b34801561073657600080fd5b5061071d610745366004612acf565b6127cc565b34801561075657600080fd5b506102c960025481565b34801561076c57600080fd5b506102b261077b366004612acf565b612836565b34801561078c57600080fd5b5060066020526000805160206131a9833981519152547f80d230cc92546ee7059b256b4d8e9a7f035d2eb8f71d3444827550e94dc47ff4547f3e83cb6b348dcadb003395a22acea6aa7b846597dfb11744db8fa1270076c15f547fa0639db2f27fee613385d89a1b703172cc995ddef196f7fea869f83d1154e8685473fff9976782d46cc05630d1f6ebab18b2324d6b146000527f07424df273906cf1a98b083e0119eb47c3b42b2519f49d6233f8ca13b90a0e5254604080519586526020860194909452928401919091526060830152608082015260a001610269565b34801561087657600080fd5b5061025573ff34b3d4aee8ddcd6f9afffb6fe49bd371b8a35781565b34801561089e57600080fd5b506102c960035481565b6108b0612871565b6108b861289e565b6001600160a01b038116600090815260066020526040902054806109195760405162461bcd60e51b81526020600482015260136024820152724e6f206665657320746f20776974686472617760681b60448201526064015b60405180910390fd5b6001600160a01b0382166000818152600660205260408120556109af576004546040516000916001600160a01b03169083908381818185875af1925050503d8060008114610983576040519150601f19603f3d011682016040523d82523d6000602084013e610988565b606091505b50509050806109a95760405162461bcd60e51b815260040161091090612efb565b506109c9565b6004546109c9906001600160a01b038481169116836128c8565b6004546040518281526001600160a01b03918216918416907ff3a15b70ef42163a42bbb07edb60d02f31fd11d394c9326022f78e1c7e12f6859060200160405180910390a350610a1860018055565b50565b600d6020528160005260406000208181548110610a3757600080fd5b90600052602060002001600091509150505481565b610a54612a2c565b6000828152600a602081815260409283902083516101608101855281546001600160a01b03908116825260018301548116938201939093526002820154831694810194909452600381015460608501526004808201546080860152600582015490921660a0850152600681015460c0850152600781015460e0850152600881015461010085015260098101546101208501529182015461014084019160ff90911690811115610b0557610b05612b38565b6004811115610b1657610b16612b38565b90525092915050565b600b60205260009081526040902080546001820154600283015460038401805460ff909416949293919291610b5390612f28565b80601f0160208091040260200160405190810160405280929190818152602001828054610b7f90612f28565b8015610bcc5780601f10610ba157610100808354040283529160200191610bcc565b820191906000526020600020905b815481529060010190602001808311610baf57829003601f168201915b5050506004909301549192505060ff1685565b610be7612871565b610bf1600061292c565b565b610bfb612871565b6001600160a01b0381166000908152600b602052604081206003018054610c2190612f28565b80601f0160208091040260200160405190810160405280929190818152602001828054610c4d90612f28565b8015610c9a5780601f10610c6f57610100808354040283529160200191610c9a565b820191906000526020600020905b815481529060010190602001808311610c7d57829003601f168201915b5050506001600160a01b0385166000818152600b602052604090819020805460ff1916905551939450927f617a625823f687a1440db57ae598a2ba91f2c2d180bb2adc78e5fbfed162ca339250610cf391508490612f62565b60405180910390a25050565b6000610d0961289e565b6001600160a01b0387166000908152600b602052604090205460ff16610d715760405162461bcd60e51b815260206004820152601860248201527f4c6f616e20746f6b656e206e6f7420737570706f7274656400000000000000006044820152606401610910565b6001600160a01b0383166000908152600b602052604090205460ff16610dd95760405162461bcd60e51b815260206004820152601860248201527f436f6c6c61746572616c206e6f7420737570706f7274656400000000000000006044820152606401610910565b6001600160a01b0387166000908152600b6020526040902060010154861015610e355760405162461bcd60e51b815260206004820152600e60248201526d416d6f756e7420746f6f206c6f7760901b6044820152606401610910565b6001600160a01b0387166000908152600b6020526040902060020154861115610e925760405162461bcd60e51b815260206004820152600f60248201526e082dadeeadce840e8dede40d0d2ced608b1b6044820152606401610910565b600085118015610ea3575060328511155b610ee75760405162461bcd60e51b8152602060048201526015602482015274496e76616c696420696e746572657374207261746560581b6044820152606401610910565b600084118015610f0657506276a700610f038562015180612f8b565b11155b610f455760405162461bcd60e51b815260206004820152601060248201526f24b73b30b634b210323ab930ba34b7b760811b6044820152606401610910565b60008211610f8b5760405162461bcd60e51b815260206004820152601360248201527210dbdb1b185d195c985b081c995c5d5a5c9959606a1b6044820152606401610910565b6009546001600160a01b03841661105b57823414610fe25760405162461bcd60e51b8152602060048201526014602482015273125b98dbdc9c9958dd0811551208185b5bdd5b9d60621b6044820152606401610910565b60085460405163117a05d560e01b81526004810183905260006024820152604481018590523360648201526001600160a01b039091169063117a05d59034906084016000604051808303818588803b15801561103d57600080fd5b505af1158015611051573d6000803e3d6000fd5b5050505050611145565b34156110b55760405162461bcd60e51b8152602060048201526024808201527f446f6e27742073656e642045544820666f72204552432d323020636f6c6c6174604482015263195c985b60e21b6064820152608401610910565b6008546110d1906001600160a01b03868116913391168661297c565b60085460405163117a05d560e01b8152600481018390526001600160a01b038681166024830152604482018690523360648301529091169063117a05d590608401600060405180830381600087803b15801561112c57600080fd5b505af1158015611140573d6000803e3d6000fd5b505050505b6040805161016081018252338152600060208201526001600160a01b038a169181019190915260608101889052608081016064611182898b612f8b565b61118c9190612fa8565b611196908a612fca565b81526001600160a01b0386166020820152604081018590526060016111be8762015180612f8b565b815260200160008152602001428152602001600060048111156111e3576111e3612b38565b90526000828152600a6020818152604092839020845181546001600160a01b03199081166001600160a01b03928316178355928601516001808401805486169284169290921790915594860151600283018054851691831691909117905560608601516003830155608086015160048084019190915560a087015160058401805490951692169190911790925560c0850151600682015560e085015160078201556101008501516008820155610120850151600982015561014085015192810180549194909260ff199092169184908111156112c1576112c1612b38565b021790555050336000818152600c60209081526040808320805460018101825590845282842001869055858352600a909152908190206004810154600790910154915192935084927f555e2999d21ca3ef8e300a71c848e79b1faa8c76705e70a2ed0833f3e439211792611372928e928e928c918c91906001600160a01b0396871681526020810195909552604085019390935293166060830152608082019290925260a081019190915260c00190565b60405180910390a36009805490600061138a83612fdd565b909155505060018055979650505050505050565b6113a661289e565b6000818152600a6020526040812090600a82015460ff1660048111156113ce576113ce612b38565b146114105760405162461bcd60e51b81526020600482015260126024820152714c6f616e206e6f7420617661696c61626c6560701b6044820152606401610910565b8054336001600160a01b03909116036114625760405162461bcd60e51b815260206004820152601460248201527321b0b73737ba10333ab7321037bbb7103637b0b760611b6044820152606401610910565b600061271060025483600301546114799190612f8b565b6114839190612fa8565b905060008183600301546114979190612ff6565b6001840180546001600160a01b0319163317905560078401549091506114bd9042612fca565b6008840155600a8301805460ff19166001908117909155336000908152600d60209081526040822080549384018155825290200184905560028301546001600160a01b031661165d57826003015434146115505760405162461bcd60e51b8152602060048201526014602482015273125b98dbdc9c9958dd0811551208185b5bdd5b9d60621b6044820152606401610910565b600080805260066020526000805160206131a98339815191528054849290611579908490612fca565b9250508190555081600560008282546115929190612fca565b9091555050604051600090600080516020613189833981519152906115dd90858152604060208201819052600b908201526a37b934b3b4b730ba34b7b760a91b606082015260800190565b60405180910390a282546040516000916001600160a01b03169083908381818185875af1925050503d8060008114611631576040519150601f19603f3d011682016040523d82523d6000602084013e611636565b606091505b50509050806116575760405162461bcd60e51b815260040161091090612efb565b50611792565b34156116ab5760405162461bcd60e51b815260206004820152601e60248201527f446f6e27742073656e642045544820666f72204552432d3230206c6f616e00006044820152606401610910565b600383015460028401546116ce916001600160a01b03909116903390309061297c565b60028301546001600160a01b0316600090815260066020526040812080548492906116fa908490612fca565b9250508190555081600560008282546117139190612fca565b909155505060028301546040516001600160a01b03909116906000805160206131898339815191529061176c90858152604060208201819052600b908201526a37b934b3b4b730ba34b7b760a91b606082015260800190565b60405180910390a282546002840154611792916001600160a01b039182169116836128c8565b6007546040516340c10f1960e01b8152336004820152602481018690526001600160a01b03909116906340c10f19906044016020604051808303816000875af11580156117e3573d6000803e3d6000fd5b505050506040513d601f19601f820116820180604052508101906118079190613009565b50604051428152339085907fbd7ef6c6281278f6c8ac4ae9ef2f205b52425813c288dd47c377cb6b59c5076e9060200160405180910390a3505050610a1860018055565b611853612871565b6001600160a01b0381166118a95760405162461bcd60e51b815260206004820152601960248201527f496e76616c696420636f6c6c6563746f722061646472657373000000000000006044820152606401610910565b600480546001600160a01b038381166001600160a01b0319831681179093556040519116919082907f5d16ad41baeb009cd23eb8f6c7cde5c2e0cd5acf4a33926ab488875c37c37f3890600090a35050565b61190361289e565b6000818152600a602052604090206001600a82015460ff16600481111561192c5761192c612b38565b1461196b5760405162461bcd60e51b815260206004820152600f60248201526e4c6f616e206e6f742061637469766560881b6044820152606401610910565b80546001600160a01b031633146119c45760405162461bcd60e51b815260206004820152601760248201527f4f6e6c7920626f72726f7765722063616e2072657061790000000000000000006044820152606401610910565b8060080154421115611a095760405162461bcd60e51b815260206004820152600e60248201526d131bd85b88191959985d5b1d195960921b6044820152606401610910565b6007546040516331a9108f60e11b8152600481018490526000916001600160a01b031690636352211e90602401602060405180830381865afa158015611a53573d6000803e3d6000fd5b505050506040513d601f19601f82011682018060405250810190611a779190613022565b9050600082600301548360040154611a8f9190612ff6565b9050600061271060035483611aa49190612f8b565b611aae9190612fa8565b90506000818560040154611ac29190612ff6565b60028601549091506001600160a01b0316611c355784600401543414611b2a5760405162461bcd60e51b815260206004820152601a60248201527f496e636f72726563742072657061796d656e7420616d6f756e740000000000006044820152606401610910565b600080805260066020526000805160206131a98339815191528054849290611b53908490612fca565b925050819055508160056000828254611b6c9190612fca565b909155505060405160009060008051602061318983398151915290611bb490858152604060208201819052600890820152671a5b9d195c995cdd60c21b606082015260800190565b60405180910390a26000846001600160a01b03168260405160006040518083038185875af1925050503d8060008114611c09576040519150601f19603f3d011682016040523d82523d6000602084013e611c0e565b606091505b5050905080611c2f5760405162461bcd60e51b815260040161091090612efb565b50611d6e565b3415611c8f5760405162461bcd60e51b815260206004820152602360248201527f446f6e27742073656e642045544820666f72204552432d32302072657061796d604482015262195b9d60ea1b6064820152608401610910565b60048501546002860154611cb2916001600160a01b03909116903390309061297c565b60028501546001600160a01b031660009081526006602052604081208054849290611cde908490612fca565b925050819055508160056000828254611cf79190612fca565b909155505060028501546040516001600160a01b039091169060008051602061318983398151915290611d4d90858152604060208201819052600890820152671a5b9d195c995cdd60c21b606082015260800190565b60405180910390a26002850154611d6e906001600160a01b031685836128c8565b6008546040516339007b7760e01b8152600481018890526001600160a01b03909116906339007b7790602401600060405180830381600087803b158015611db457600080fd5b505af1158015611dc8573d6000803e3d6000fd5b50505050600a8501805460ff19166002179055600754604051630852cd8d60e31b8152600481018890526001600160a01b03909116906342966c6890602401600060405180830381600087803b158015611e2157600080fd5b505af1158015611e35573d6000803e3d6000fd5b50505050857f040cee90ee4799897c30ca04e5feb6fa43dbba9b6d084b4b257cdafd84ba013e42604051611e6b91815260200190565b60405180910390a25050505050610a1860018055565b611e89612871565b611e9161289e565b6000805260066020526000805160206131a98339815191525415611f8b57600080805260066020526000805160206131a98339815191528054908290556004546040519192916001600160a01b039091169083908381818185875af1925050503d8060008114611f1d576040519150601f19603f3d011682016040523d82523d6000602084013e611f22565b606091505b5050905080611f435760405162461bcd60e51b815260040161091090612efb565b6004546040518381526001600160a01b03909116906000907ff3a15b70ef42163a42bbb07edb60d02f31fd11d394c9326022f78e1c7e12f6859060200160405180910390a350505b6040805160808101825273ff34b3d4aee8ddcd6f9afffb6fe49bd371b8a35781527394a9d9ac8a22534e3faca9f4e7f2e2cf85d5e4c8602082015273779877a7b0d9e8603169ddbd7836e478b46247899181019190915273fff9976782d46cc05630d1f6ebab18b2324d6b14606082015260005b6004811015612189576000600660008484600481106120205761202061303f565b60200201516001600160a01b03166001600160a01b03168152602001908152602001600020541115612177576000600660008484600481106120645761206461303f565b60200201516001600160a01b03166001600160a01b031681526020019081526020016000205490506000600660008585600481106120a4576120a461303f565b60200201516001600160a01b03166001600160a01b031681526020019081526020016000208190555061210e600460009054906101000a90046001600160a01b0316828585600481106120f9576120f961303f565b60200201516001600160a01b031691906128c8565b600480546001600160a01b03169084908490811061212e5761212e61303f565b60200201516001600160a01b03167ff3a15b70ef42163a42bbb07edb60d02f31fd11d394c9326022f78e1c7e12f6858360405161216d91815260200190565b60405180910390a3505b8061218181612fdd565b915050611fff565b5050610bf160018055565b61219c612871565b6101f48211156121ee5760405162461bcd60e51b815260206004820152601860248201527f4f726967696e6174696f6e2066656520746f6f206869676800000000000000006044820152606401610910565b6107d08111156122385760405162461bcd60e51b8152602060048201526015602482015274092dce8cae4cae6e840cccaca40e8dede40d0d2ced605b1b6044820152606401610910565b6002829055600381905560408051838152602081018390527f1eab951da250f7e001396235b296e29bc73945b6a52fd471dd8f3de3398634be910160405180910390a15050565b61228761289e565b6000818152600a6020526040812090600a82015460ff1660048111156122af576122af612b38565b146122ef5760405162461bcd60e51b815260206004820152601060248201526f4c6f616e206e6f742070656e64696e6760801b6044820152606401610910565b80546001600160a01b031633146123485760405162461bcd60e51b815260206004820152601860248201527f4f6e6c7920626f72726f7765722063616e2063616e63656c00000000000000006044820152606401610910565b600a8101805460ff191660049081179091556008546040516339007b7760e01b81529182018490526001600160a01b0316906339007b7790602401600060405180830381600087803b15801561239d57600080fd5b505af11580156123b1573d6000803e3d6000fd5b50506040518492507fb71becc91961a6b43bcc5b3b630f3dce02c7fd444cf3738c4f188062b1caf5bc9150600090a250610a1860018055565b6123f261289e565b6000818152600a602052604090206001600a82015460ff16600481111561241b5761241b612b38565b1461245a5760405162461bcd60e51b815260206004820152600f60248201526e4c6f616e206e6f742061637469766560881b6044820152606401610910565b806008015442116124a65760405162461bcd60e51b8152602060048201526016602482015275131bd85b881b9bdd08191959985d5b1d1959081e595d60521b6044820152606401610910565b6007546040516331a9108f60e11b8152600481018490526000916001600160a01b031690636352211e90602401602060405180830381865afa1580156124f0573d6000803e3d6000fd5b505050506040513d601f19601f820116820180604052508101906125149190613022565b60085460405163f0472c4960e01b8152600481018690526001600160a01b03808416602483015292935091169063f0472c4990604401600060405180830381600087803b15801561256457600080fd5b505af1158015612578573d6000803e3d6000fd5b50505050600a8201805460ff1916600317905560405142815283907ff5c2e2ff5a0aa88c6e9352be55b58e2c44042366ea1a2e7a63b3b8ad3ef36c499060200160405180910390a25050610a1860018055565b6125d3612871565b6001600160a01b0385166126215760405162461bcd60e51b8152602060048201526015602482015274496e76616c696420746f6b656e206164647265737360581b6044820152606401610910565b8383116126625760405162461bcd60e51b815260206004820152600f60248201526e496e76616c696420616d6f756e747360881b6044820152606401610910565b6040805160a081018252600180825260208083018881528385018881526060850188815260ff881660808701526001600160a01b038c166000908152600b909452959092208451815460ff1916901515178155905192810192909255516002820155915190919060038201906126d890826130a3565b50608091909101516004909101805460ff191660ff9092169190911790556040516001600160a01b038616907f07d5055b5b35e34a04ccb920c53bfd283e8b153b1cfb67c8beb649e8ebc2b29e9061273590859088908890613163565b60405180910390a25050505050565b600c6020528160005260406000208181548110610a3757600080fd5b6001600160a01b0381166000908152600c60209081526040918290208054835181840281018401909452808452606093928301828280156127c057602002820191906000526020600020905b8154815260200190600101908083116127ac575b50505050509050919050565b6001600160a01b0381166000908152600d60209081526040918290208054835181840281018401909452808452606093928301828280156127c057602002820191906000526020600020908154815260200190600101908083116127ac5750505050509050919050565b61283e612871565b6001600160a01b03811661286857604051631e4fbdf760e01b815260006004820152602401610910565b610a188161292c565b6000546001600160a01b03163314610bf15760405163118cdaa760e01b8152336004820152602401610910565b6002600154036128c157604051633ee5aeb560e01b815260040160405180910390fd5b6002600155565b6040516001600160a01b0383811660248301526044820183905261292791859182169063a9059cbb906064015b604051602081830303815290604052915060e01b6020820180516001600160e01b0383818316178352505050506129bb565b505050565b600080546001600160a01b038381166001600160a01b0319831681178455604051919092169283917f8be0079c531659141344cd1fd0a4f28419497f9722a3daafe3b4186f6b6457e09190a35050565b6040516001600160a01b0384811660248301528381166044830152606482018390526129b59186918216906323b872dd906084016128f5565b50505050565b600080602060008451602086016000885af1806129de576040513d6000823e3d81fd5b50506000513d915081156129f6578060011415612a03565b6001600160a01b0384163b155b156129b557604051635274afe760e01b81526001600160a01b0385166004820152602401610910565b60405180610160016040528060006001600160a01b0316815260200160006001600160a01b0316815260200160006001600160a01b03168152602001600081526020016000815260200160006001600160a01b031681526020016000815260200160008152602001600081526020016000815260200160006004811115612ab557612ab5612b38565b905290565b6001600160a01b0381168114610a1857600080fd5b600060208284031215612ae157600080fd5b8135612aec81612aba565b9392505050565b60008060408385031215612b0657600080fd5b8235612b1181612aba565b946020939093013593505050565b600060208284031215612b3157600080fd5b5035919050565b634e487b7160e01b600052602160045260246000fd5b60058110612b6c57634e487b7160e01b600052602160045260246000fd5b9052565b81516001600160a01b0316815261016081016020830151612b9c60208401826001600160a01b03169052565b506040830151612bb760408401826001600160a01b03169052565b50606083015160608301526080830151608083015260a0830151612be660a08401826001600160a01b03169052565b5060c083015160c083015260e083015160e083015261010080840151818401525061012080840151818401525061014080840151612c2682850182612b4e565b505092915050565b6000815180845260005b81811015612c5457602081850181015186830182015201612c38565b506000602082860101526020601f19601f83011685010191505092915050565b851515815284602082015283604082015260a060608201526000612c9b60a0830185612c2e565b905060ff831660808301529695505050505050565b60008060008060008060c08789031215612cc957600080fd5b8635612cd481612aba565b95506020870135945060408701359350606087013592506080870135612cf981612aba565b8092505060a087013590509295509295509295565b60008060408385031215612d2157600080fd5b50508035926020909101359150565b634e487b7160e01b600052604160045260246000fd5b803560ff81168114612d5757600080fd5b919050565b600080600080600060a08688031215612d7457600080fd5b8535612d7f81612aba565b94506020860135935060408601359250606086013567ffffffffffffffff80821115612daa57600080fd5b818801915088601f830112612dbe57600080fd5b813581811115612dd057612dd0612d30565b604051601f8201601f19908116603f01168101908382118183101715612df857612df8612d30565b816040528281528b6020848701011115612e1157600080fd5b826020860160208301376000602084830101528096505050505050612e3860808701612d46565b90509295509295909350565b6001600160a01b038c811682528b811660208301528a81166040830152606082018a905260808201899052871660a082015260c0810186905260e08101859052610100810184905261012081018390526101608101612ea7610140830184612b4e565b9c9b505050505050505050505050565b6020808252825182820181905260009190848201906040850190845b81811015612eef57835183529284019291840191600101612ed3565b50909695505050505050565b602080825260139082015272115512081d1c985b9cd9995c8819985a5b1959606a1b604082015260600190565b600181811c90821680612f3c57607f821691505b602082108103612f5c57634e487b7160e01b600052602260045260246000fd5b50919050565b602081526000612aec6020830184612c2e565b634e487b7160e01b600052601160045260246000fd5b8082028115828204841417612fa257612fa2612f75565b92915050565b600082612fc557634e487b7160e01b600052601260045260246000fd5b500490565b80820180821115612fa257612fa2612f75565b600060018201612fef57612fef612f75565b5060010190565b81810381811115612fa257612fa2612f75565b60006020828403121561301b57600080fd5b5051919050565b60006020828403121561303457600080fd5b8151612aec81612aba565b634e487b7160e01b600052603260045260246000fd5b601f82111561292757600081815260208120601f850160051c8101602086101561307c5750805b601f850160051c820191505b8181101561309b57828155600101613088565b505050505050565b815167ffffffffffffffff8111156130bd576130bd612d30565b6130d1816130cb8454612f28565b84613055565b602080601f83116001811461310657600084156130ee5750858301515b600019600386901b1c1916600185901b17855561309b565b600085815260208120601f198616915b8281101561313557888601518255948401946001909101908401613116565b50858210156131535787850151600019600388901b60f8161c191681555b5050505050600190811b01905550565b6060815260006131766060830186612c2e565b6020830194909452506040015291905056febde344b6f67c3bf7e0ecbbf22b04267d5d3ae0aa1909c0000b812f6b14ce45b954cdd369e4e8a8515e52ca72ec816c2101831ad1f18bf44102ed171459c9b4f8a2646970667358221220d1ae467c85fe2de36d7b2a81c16b6e19fc006dae7f1bf7afbeefad0ab7cf197564736f6c63430008140033",
  "linkReferences": {},
  "deployedLinkReferences": {}
}